:020000040800F2
:100000000050002069030108EDFE0008EFFE000823
:1000100009FF00080BFF00080DFF000800000000AA
:1000200000000000000000000000000021B00008F7
:100030000FFF000800000000B1B00008F5B0000894
:10004000B1030108B1030108B1030108B1030108BC
:10005000B1030108B1030108B1030108B1030108AC
:10006000B1030108B1030108B103010811FF000841
:10007000B1030108B10301081DFF000829FF0008B2
:1000800035FF000841FF00084DFF0008B1030108DB
:10009000B1030108B1030108B1030108B10301086C
:1000A000B1030108B1030108B1030108B10301085C
:1000B00069FF0008B1030108B103010875FF0008DA
:1000C00081FF0008B1030108B1030108B103010871
:1000D000B10301088DFF0008B1030108B103010855
:1000E00099FF0008B1030108B103010800000000F6
:1000F0000000000000000000000000000000000000
:0C01000000000000000000005FF808F1A3
:10011000034613F8012B002AFBD1181A0138704747
:100120002DE9F04F002287B00023CDE904234FF0E2
:10013000030BCDF80CB00290029B19685868A1FB24
:1001400001231D461446029BCDE90045D3E90689EB
:1001500001FB00F305EB43030193DDE900ABB8EBD2
:100160000A0469EB0B0522462B46CDE90023A8FBC8
:100170000823261945EB050708FB09F5904603EB14
:100180004503D8F1000463EB43059946DDE90023FC
:1001900092197B41AE00A70046EA94763C4635466C
:1001A000CDE900AB1AEB020A4BEB030B01FB0BF69C
:1001B000A1FB0A2300FB0A66DDE900AB3344029E83
:1001C00006F13007D7E90067B61A67EB030718EBAB
:1001D000040249EB050314461D461AEB0A084BEBD3
:1001E0000B0901FB09FC029B4FEA870ED3E912239E
:1001F00012196B4114461D46A1FB082300FB08C8D9
:100200004EEA967E434401FB03F77346B600B246BE
:10021000A1FB028900FB027601FB03F314EB080447
:10022000B14445EB090500FB0A32A1FB0A8914EB36
:100230000800914445EB0901002871F10003029B7D
:1002400003F1080302932BDBDDE9042382428B4197
:1002500001DACDE90401039B013B03937FF46CAF0A
:10026000DDE9040103F078FA0F4B996B03F066FBAC
:1002700011F084FB0D4BD3F80C329B00C3F120022C
:1002800001FA02F2B3F1200420FA03F040EA02007E
:100290005CBF41FA04F42043194107B0BDE8F08F78
:1002A000404261EB4101CFE72002002010430020D3
:1002B000C1070AD5184B4FF040414FF08042996674
:1002C000D96619675A679A67DA67820710D5124BA1
:1002D0004FF040414FF08042C3F80011C3F80411C1
:1002E000C3F80811C3F80C21C3F81021C3F8142176
:1002F000430710D5084B4FF040414FF08042C3F800
:100300009811C3F89C11C3F8A011C3F8A421C3F835
:10031000A821C3F8AC2170471043002038B5094D1F
:10032000982422462846002103F02CFD05F59870FC
:100330002246002103F026FDBDE838400520FFF7E6
:10034000B7BF00BF1843002010B50D4C00214FF47B
:100350001872204603F016FD0720FFF7A9FF0123BE
:10036000184603210022C4F8E43184F8E8310EF085
:100370001BF9BDE810400348642107220DF032BF8D
:1003800010430020190A0008836F03B1C8E600205B
:10039000002170472DE9F84F836F002B57D0A0F153
:1003A000080E0026002710305EF8081FDEF804C093
:1003B000A1FB0145DEE90623DEE90CAB01FB0CF8ED
:1003C000121B05EB480563EB050312EB020843EB38
:1003D000030912EB080243EB0903121902FB0CFCA0
:1003E0006B41A2FB014501FB03C1B4EB0A040D44C0
:1003F00065EB0B05002C75F100032CDBA64277EBB7
:100400000503BCBF26462F468645CDD1394630462A
:1004100003F0A2F9124B996B03F090FA11F0AEFAC7
:10042000104BD3F80C3203EB4303C3F1200201FA63
:1004300002F2B3F1200420FA03F058BF41FA04F4A9
:1004400040EA020058BF20431941BDE8F88F184622
:100450001946BDE8F88F644265EB4505CEE700BF5D
:1004600020020020104300202E4BF0B51A461C46F7
:1004700085B0D3F810E2054603F1800101A803F12D
:10048000180752F8083F51F8046F03FA0EF303EB14
:100490000643BA4240F8043BF3D198220021224897
:1004A00003F070FC0120FFF703FF94F8E8311D4AC8
:1004B000042B2ED01D4E029B706A0199B26A091A54
:1004C0009A1A002982EAE273A3EBE273B8BF4942A9
:1004D0008B42B8BF0B46F06A039A696A101A00286B
:1004E000B8BF40429842B8BF18460EF0A1F8D4F801
:1004F0001832984206DA01A803210DF0A1FD02206E
:100500000EF0B8FC01A90EC97162B262F36205B0C7
:10051000F0BDD2F81832B3F5201FC4BF052382F80E
:10052000E831C7E7104300201843002020020020D4
:10053000014BC3E90201704720020020014BC3E9CF
:100540000601704720020020014BC3E904017047F7
:1005500020020020054BD3F8E02103F5E873026088
:10056000D3E90023C1E90023704700BF10430020F6
:10057000054BD3F8E02103F5EC730260D3E90023C7
:10058000C1E90023704700BF104300202DE9F04F60
:100590000D4683B001F11803D1F878B001F1680C71
:1005A00001F15C0A0193BBF1000F37D0B0F90020D4
:1005B000DCF81430D31A1E46DF172C465AF8042FE5
:1005C00005F1600E9A42B8BFCAF800305CF8042FFB
:1005D0009A42C8BFCCF800300122002302FB07F882
:1005E00006FB0388A2FB06234344D4E9008918EBE9
:1005F000020849EB0309E4E806897445EED1019B42
:1006000008359D4200F10200CDD10BF1010301221A
:100610008B67C1F8902003B0BDE8F08FB0F90020DF
:10062000002600275B46CCF81420C6E70368F0B428
:10063000D3664368946F13678368C2F88810536762
:1006400094B1043802F15C0102F1680750F8043FEC
:100650000E6A51F8045F9B1B002BB8BF5B42AB4294
:10066000C8BF0B60B942F1D1013401239467C2F8CD
:100670009030F0BC704700BF30B4416FC56E046F5E
:10068000D0F888200023C567C0F88040C0F88410E7
:10069000C0F88C200366436683668367C0F8903099
:1006A00030BC7047D0F88820D0F88C00101A704702
:1006B000016E436E826E9942B8BF19469142084658
:1006C000B8BF1046704700BFF0B503468E46C2F172
:1006D0002004B2F120070EFA04FC23FA02F002F122
:1006E000FF354FF0010658BF4EFA07F706FA05F638
:1006F0004CEA0000A4F1200558BF384303FA05F581
:10070000C4F1200723FA07F74CEA05053D43A3404F
:10071000C4F12007E34005FA07F7203C43EA07034A
:100720005CBF45FA04F423439E424EFA02F107DB14
:100730007642B34203DA10F1FF3041F1FF31F0BDF0
:10074000013041F10001F0BD0B4A0023114641F890
:10075000043B0431536041F8043B0B601362536265
:100760009362D362136153619361D36113635363E3
:100770009363D363704700BF304500200B4AF0B449
:10078000D2F8483204460D466BB11146F1E9906744
:10079000864277EB050001DAC1E90045F0BC013380
:1007A000C2F84832704702F51071F5E71043002097
:1007B0000B4AF0B4D2F8583204460D466BB11146DC
:1007C000F1E99467864277EB050001DAC1E900455B
:1007D000F0BC0133C2F85832704702F51471F5E7E6
:1007E000104300200B4AF0B4D2F8283204460D46DC
:1007F0006BB11146F1E98867B04275EB070001DA89
:10080000C1E90045F0BC0133C2F82832704702F557
:100810000871F5E7104300200B4AF0B4D2F83832E3
:1008200004460D466BB11146F1E98C67B04275EB99
:10083000070001DAC1E90045F0BC0133C2F83832E3
:10084000704702F50C71F5E7104300202DE9F84FD1
:100850004C4C4D4E616FE56EA26EA36F521AEB1AAF
:100860009342B8BF13461946E26F236FF56B9A1A8D
:1008700091420B46B8BF13469D425ADB036BDD0520
:1008800002D40220BDE8F88FD4F880302268934269
:10089000F7DB416FC90551D5D4F8B0319A42F0DC8D
:1008A000002B5BD14FF000084FF000093549D6E925
:1008B0000423424501F5EC7073EB0903C0E900899C
:1008C0004ADAD1F83832002B53D101F50C71C1E965
:1008D00000890133C4F838320025002198222B48C2
:1008E00003F050FA0420FFF7E3FCD4F8803043B360
:1008F0002748FFF715FC06F11807D7E90067214BD9
:10090000864203F5F872C2E9000177EB01021BDAB7
:10091000D3F82822DAB1F3E98867B04271EB070512
:1009200001DAC3E900010132C4F828220020BDE841
:10093000F88FFFF7F3FC0020BDE8F88F0125002BAE
:10094000D6D100200021D6E72846BDE8F88F03F570
:100950000873C3E90001E6E70125BEE704F59C70D2
:10096000FFF7DEFB4FEA105848EA01384FEA2159F9
:100970009CE7F1E98CABD04579EB0B02A9DAC1E930
:100980000089A6E7104300202002002048440020F0
:100990001843002070B5036B84B003F0C003C02B74
:1009A00004462ED0636F03F0C003C02B23D0D4F8CD
:1009B000B83003F0C002C02A16D003F06003602BE9
:1009C00001D004B070BD04F1A0010EC98E139513BF
:1009D0009B13D4F8C01001A80C4A0196029503930A
:1009E000FFF724FE04B070BDB4F98C60B4F98E50EA
:1009F000B4F99030EDE704F148000549FFF7C6FD72
:100A0000D5E704300349FFF7C1FDCBE7B043002031
:100A100048440020184300202DE9F843036BD90512
:100A200040F18280426F044602F05002402A7ED09C
:100A3000D0F8B82002F05002402A78D003F05003DA
:100A4000402B74D0B84DE36AD5F80822B64E9A42CE
:100A500019D0092BC6F80832B44F40F324817B6BC0
:100A6000386B1946BA6BC6F80C323060C6F81422DF
:100A700019228A40C3F110034FF48041C5F81032A7
:100A8000FA63C5F818122046FFF784FF95F8E8319D
:100A9000062B49D8DFE813F0F400C800BF000700B8
:100AA0009B00770054002046FFF7D0FE002800F09E
:100AB000F680012838D1D4F8B830DA0540F12C811D
:100AC00005F580700DC89042B8BF10468342B8BF8C
:100AD00003461846944E954FD91706F5E873C3E9B7
:100AE0000001D7E9022382428B4180F20C81052369
:100AF00086F8E8318E4BD5F85822D3E90001002A58
:100B000040F0F180C3E91E018A49D5F8483201322C
:100B1000C5F85822D1E90067002B40F0DA80C1E91E
:100B200014670133C5F848320020BDE8F8837E4DD4
:100B3000FFF7F4FB0023C5F8E03185F8E83182E7E0
:100B40002046FFF783FE0128044600F0BE800028FF
:100B5000EAD1FFF7E3FBD5F8283105F5867007C821
:100B6000C5F80041C5F80441C5F80841C5F8184169
:100B7000C5F83041C5F81C01C5F82011C5F824217D
:100B8000C5F82C31D0E70623012085F8E8310EF0B6
:100B900071F9FFF7C3FBD5F80C41D5F81001D5F872
:100BA0001411D5F828210023C5F81C41C5F82001EF
:100BB000C5F82411C5F82C21C5F80031C5F8043159
:100BC000C5F80831C5F81831C5F83031ACE7D4F8AC
:100BD000B830DB0514D505F580710EC98A42B8BF5F
:100BE0000A469342B8BF13461A4653484F49DB178B
:100BF000C0E90023D1E90201904271EB03034EDB0F
:100C00002046FFF723FE002849D001288CD120463A
:100C1000FFF72AFC6EE70323204685F8E831FFF74B
:100C200023FCFFF77BFB7FE7D5F898303E4E012B86
:100C30007FF47AAF2046FFF709FE00285DD1052337
:100C400086F8E831D5F80C41D5F81001D5F8141123
:100C5000D5F828210023C5F81C41C5F82001C5F8A6
:100C60002411C5F82C21C5F80031C5F80431C5F8A8
:100C70000831C5F81831C5F83031FFF765FD53E785
:100C8000D5F8E031284C5A1C092BC5F8E0217FF734
:100C90004BAFFFF743FB012384F8E83144E705231A
:100CA00085F8E83140E73B6B7A6B5B000132184610
:100CB0003360C6F80C2202F039FD0FF01FFCD6F8A5
:100CC0000C32C6F81402796BD2E6022385F8E831BB
:100CD0002AE7F1E91489B04579EB0702BFF621AFA5
:100CE000C1E900671DE7F3E91E67864277EB01045F
:100CF000BFF60AAFC3E9000106E7012804BF0223DB
:100D000086F8E8319EE7D6F82831D6F82C113A6AF1
:100D10005B1A9342FFF4EEAE0423204685F8E831D7
:100D2000FFF7A2FBE6E600BF1043002020020020F0
:100D3000E844002000450020E044002010B50023D6
:100D40004010002810D10133094C01229A4010466E
:100D50006363226302F0EAFC0FF0D0FB626B19239D
:100D60009340A063E36310BD03F10103E8DCEAE70D
:100D7000200200202DE9F84340F2DC58154D164CB6
:100D8000284600214FF4187202F0FCFF0021402297
:100D9000204602F0F7FF0720FFF78AFA0F494FF4C9
:100DA000167200234FF0010E4FF0000914260027A1
:100DB0001920C5F8E4E1C4E90689C4E90267C4E979
:100DC00004232162FFF7BAFF0020C5F80802BDE83E
:100DD000F88300BF10430020200200200008AF2F3E
:100DE00008B501200EF046F8BDE8084001480DF0B6
:100DF0004BBA00BF190A000808B5FFF7BBFF00B1E6
:100E000008BD0248BDE808400EF052B94903000889
:100E100008B5FFF7E5FFBDE8084001480EF024B92A
:100E200049030008014BD3E9000170470045002049
:100E3000704700BF0000000002484FF41671042202
:100E40000DF0D0B9291400082DE9F047446B88460D
:100E5000002C92461F46C0F2B980D0F8BC30A3F1F6
:100E60000309B9FA89F94FEA59196B482422A0F10C
:100E7000BC06011D05F074FB06F1B8040023C6F89A
:100E8000E08006F1E00554F8041F184602F09AFBD2
:100E9000AC420346F7D1614902F050FDBAF1310F7F
:100EA00004465F4DC6F8E40016DDC823C5F81C31C2
:100EB000384602F03BFCBAF57A7F0546404676DBC1
:100EC000584902F03BFD0146284602F083FC564992
:100ED00002F034FD054623E05448FB1780FB072051
:100EE000D5F81C11A3EBE02303EB830303EB010A0A
:100EF000BAF1000FC5F81CA16BDB4D49404602F06A
:100F00001DFD0546384602F011FC0146284602F058
:100F100061FC454902F012FD0546BAF1000F6BD0A5
:100F2000D6F8203103B14546424B00219F4208BF0D
:100F30004546284602F0E2FD002843D0D6F8E800F6
:100F4000214602F03DFB20F0004001F0B5FF2EA34A
:100F5000D3E9002302F098FA30B3D6F8B8000021A4
:100F60002F4C02F0CBFDF8B1B9F1000F1CD0C82313
:100F7000C4F81C31404601F09FFF00222E4B02F0C6
:100F80001DF9044638460D4601F084FF02460B4623
:100F90002046294601F0E8FF1DA3D3E9002302F013
:100FA0000DF902F0B9FA05462846BDE8F087234955
:100FB00002F0C4FC294602F00DFC1B4902F0BEFC05
:100FC0000546ADE72046C6F8E840B9E74FF000090E
:100FD0004BE70023C5F81C311549404602F0AEFC32
:100FE0000546384602F0A2FB0146284602F0F2FB15
:100FF0000D4902F0A3FC0546D6F82831012B08BFA5
:1010000000258DE7AFF300801283C0CAA145B63F2B
:10101000000000000088B3402C4600200000204162
:10102000704500200000484200409C45AD8BDB68C5
:101030000000C84340420F000000794000004843D0
:101040002DE9F04FD04EABB0D6F820210023032A73
:1010500003930493059300F0A98106F1A4031C46B1
:101060000090019309AD54F8040F02F05FFB4FF0BC
:10107000425102F0AFFBC54B45F8040B9C42F2D144
:1010800006AD1DA8A3F1B4040DF05EFF28460DF0D7
:1010900015FF04F10C013C22204605F061FA04F131
:1010A0005801502204F1480005F05AFA95E807006B
:1010B00004F13C03D6F824C183E807000CF1010ECB
:1010C00004F198051DABBEF1060F0FCBC6F824E165
:1010D00085E80F0040F316810623C4F824314FF051
:1010E0000009009B06EB091C09EB4904DFF8B4A2D8
:1010F0000CF1480806EB840403F1A00B21AD414636
:10110000A3482A460DF09AFA21462A4658460DF081
:1011100035FB2AF00041074620F0004002F0F8FCC1
:1011200009F1010908F110080C3400B1BA46B9F10F
:10113000060FE4D1009F974C07F118000DF065FAF7
:10114000D6F830318209A342A8BF2346514638461B
:10115000FFF77AFED6F8EC1002F03CFBC6F8B800B8
:1011600019A80DF0F1FE19A829460DF010FD19A9D6
:1011700089481DAA0DF062FA19A887490DF0F2FA04
:101180000DF10C0B4FF0000C0DF1800A05EB0C0279
:101190001DAB0020002153F8044F52F8047B534547
:1011A000C4FB0701F7D1830F0CF10C0C43EA810358
:1011B000BCF1240F4BF8043BE8D1D6F82031002BCA
:1011C00040F0AA80059C604202F0B0FA4FF0425114
:1011D00002F000FB05460FF0EDF8824628460FF0BE
:1011E00025F90546204602F0A1FA6C4902F0A6FB5B
:1011F00007466B4AD6F830310024D81782FB032308
:10120000C0EBE3201495CDF844A01294139402F09F
:101210008DFA05463846294602F090FB4FF07C5186
:1012200002F0D8FA02F0B2FC400002F07FFA5B490B
:1012300002F0D0FA0146284602F0CCFA02F0A6FCF1
:1012400002F074FA4FF0425102F0C4FA05460FF072
:10125000B1F815902846169417940FF0E7F811ADE1
:10126000189029460DAA09A80DF005FB0DA82A46DD
:1012700015A90DF000FB009BD3F8BC70002F16DD04
:10128000DFF824A1002455F8243009AA42F82430BC
:101290004FF09D41184602F09DFA02F077FC0134B0
:1012A000042C4AF8040FEED1032F00F08580D6F805
:1012B000A80002F03BFA4FF0425102F08BFA0D9079
:1012C000D6F8AC0002F032FA4FF0425102F082FA46
:1012D0000E90D6F8B00002F029FA4FF0425102F019
:1012E00079FA0F90D6F8B40002F020FA4FF042518C
:1012F00002F070FAD6F820311090234C8BB92BB045
:10130000BDE8F08FCCF10509B9F1050F7FF7E9AE23
:10131000DFF890A021AD0DE700274FF07E5A3D4643
:1013200067E74FF07C51D4F8B80002F053FA054655
:101330000FF040F84FF09D4102F04CFA02F026FC0D
:101340000023C4F8A8002846C4F8AC30C4F8B03074
:101350000FF06CF84FF09D4102F03CFA02F016FCE1
:10136000009BD3F8C010C4F8B40004F1A8000DF03D
:1013700043FDD6F82031044A002BC0D0013BC2F80F
:1013800020312BB0BDE8F08F7045002024460020AE
:101390001846002040420F006C460020E10237470B
:1013A000AD8BDB6800247449144600200223C6F884
:1013B00020312BB0BDE8F08F00F0C6FE00287FF48E
:1013C00076AF4FF07C51D6F8B80002F003FA04462D
:1013D0000EF0F0FF002315902046169317930FF0A0
:1013E00025F815A918902A4609A80DF044FA2846B0
:1013F0000DF0DFFA019C4FF09D4155F8040B02F00F
:10140000E9F902F0C3FB064B44F8040F9C42F2D109
:10141000009B0448D3F8C0100DF0EEFCA9E700BF14
:10142000244600201846002038B5D0F8B830224AAB
:1014300013F0100308BFC2F82431D0F8203104BFE4
:101440000321C2F82011DC0505D4036BD90527D58B
:10145000436FDB0524D5D2F83431174A73B1D0F885
:10146000C030D0F8C44015491B1BA1FB03139B09D6
:10147000C2F83031FFF7E4FD002038BD44F61F65A7
:10148000D0F8B010A94213DCD2F82C412144A94273
:10149000C2F82C11F0DDC2F83011C2F82C31E9E7A6
:1014A00003210023C2F82011C2F82431002038BDE6
:1014B000C2F83011DEE700BF70450020D34D621046
:1014C00010B50D4C4FF49C720021204602F05AFCDE
:1014D00020464FF0804340F8A83F0021C4F8FC307C
:1014E0000DF08AFC4FF07E534FF47A72C4F81C2141
:1014F000C4F8EC3010BD00BF70450020024BC3F8AB
:10150000EC000020704700BF70450020024BC3F87C
:1015100028010020704700BF70450020024BC3F82F
:1015200034010020704700BF7045002001480CF0D6
:10153000ABBE00BF2914000808B5FFF7C1FF054B7B
:101540000022C3F82821C3F834210348BDE808402D
:101550000DF0AEBD70450020390E000801480DF0B9
:1015600083BD00BF390E00080248962108220CF006
:1015700039BE00BF791500082DE9F04FAFB01DA9A5
:1015800004461FA80CF09AFD1EA80DF06BFC022863
:101590000DD09649D4F8E43091F8B0011D9A10B1FD
:1015A0009B1A40F0FA8000202FB0BDE8F08F636BEB
:1015B000032BF8D10CF076FD0028F4D08B4F8C4C27
:1015C000D7F8B421D7F8B8311D9D9B1A84FB0314BA
:1015D000DB17C3EB6403AA1A92FBF3F3DCB2042C0F
:1015E000E1D8542606FB04F607EB060C9CF85030B5
:1015F000052B00F09B81194601338CF8503004EB29
:101600004404C4EBC40462181F9907EB820602F17C
:101610000A0047F82210209A97F8C0E17261219AD7
:101620000023BEF1010F47F82020F5632293239396
:101630002493259326932793289329932A932B93D6
:101640002C932D93694AAED1DDE9220194469E4642
:101650001793D2F8B831E1469C46CDE90E01DDE999
:101660002401CDE90C01DDE92601CDE90A01DDE91E
:101670002801CDE91001DDE92A01CDE90801DDE904
:101680002C01CDE9060100200021D2F8B421CDE9DA
:1016900014011692CDF84CE0199799F850E0BEF17C
:1016A000000F00F0AE804A46CDF860904FF0000881
:1016B000F1460BE016999942B8BF1946169108F108
:1016C0000108C84502F1040200F09480D36B116850
:1016D000D2F828E081FB03455169260C81FB030108
:1016E0004FEA104A4AEA014A4FEA214B8EFB0301B6
:1016F000CDE90401010C009183FB0301040C029469
:1017000046EA0546009C2F14059D44EA05440094D2
:10171000029C44EA014409140391116802942C14B8
:101720000194DDE90E45641845EBE1751399CDE9A7
:101730000E45DDE90C4519441391DDE910018019CE
:101740007941CDE910015169641845EBE175DDE996
:10175000080110EB0A0041EB0B01CDE90801DDE9BE
:101760000A0110EB0E0041EBEE71CDE90C45DDE90D
:101770000645CDE90A01DDE9000100196941CDE91D
:101780000601DDE91445DDE90201001969416345FF
:10179000CDE914018EDA9C4691E7D1F8A441D1F845
:1017A000AC21D1F8A80183FB048983FB000183FBF2
:1017B00002AB1F9C209E219F4FEA184C4FEA104E0F
:1017C0004FEA1A424EEA014E4CEA094C42EA0B42F9
:1017D0001FA8644476443A4403211F942096219222
:1017E0000CF02EFC00202FB0BDE8F08F600200202E
:1017F00067666666179BDDF86090984408F0FF0303
:1018000017935C4B09F1540999457FF446AF614643
:10181000199F169AD7F8BC31521A9A42DDE90E0187
:10182000DDF84CE0CDE92201DDE90C01CDE9240130
:10183000DDE90A01CDE92601DDE91001CDE9280144
:10184000DDE90801CDE92A01DDE90601CDE92C0138
:10185000FFF6A9AEDDE91401179E07F5D279A0FBCA
:1018600006231D4614468EFB0E2306FB01514FEA4C
:10187000124ACDE904454AEA034A05914FEA234B4F
:10188000DDE90423B2EB0A0263EB0B03CDE90C2381
:101890007246D317CDE90A23CDE908AB28AC22ADB7
:1018A000CDF8009023686168DDE904890293DDE9E1
:1018B0000823994508BF904506912868696804F196
:1018C000080405F1080527D0DDE90A89029A00FB22
:1018D00009FC002302FB03FE01FB08CC069AA0FBD7
:1018E0000801029B02FB06EEA3FB062361444FEABC
:1018F000104A4AEA014AB2EB0A024FEA214B73440A
:1019000063EB0B03190441EA12411004DDE90C23D7
:1019100002F082F9009B1860009B043300932EAB09
:101920009C42BFD1012387F8B0313CE6B81901468B
:10193000102240313C30CDF810C004F011FEDDF82B
:1019400010C0311D60463944102204F009FEB81958
:10195000014610221831143004F002FE06F128006E
:1019600006F12C0139443844102204F0F9FD042119
:1019700045E600BF0404002070B485B005466C46FF
:10198000094E06F5D27207CA8DE8070096F8B03105
:101990008DF80C300FCC286000206960AA60EB60E5
:1019A00005B070BC704700BF6002002070B40346F1
:1019B00085B06C46006859689A68DB68064E0FC4AB
:1019C0009DF80C4006F5D27386F8B04183E8070015
:1019D000002005B070BC70476002002010B50B4CB1
:1019E000002120464FF4E27202F0CCF908480123AE
:1019F0004FF4AA014FF4A02284F8C031C4F8B40116
:101A0000C4F8B811C4F8BC21002010BD6002002049
:101A10000000D8FF024BC3F8B8010020704700BF98
:101A200060020020024BC3F8B4010020704700BFE1
:101A300060020020024BC3F8BC010020704700BFC9
:101A400060020020034658B1064A0020D2F8A411D3
:101A50001960D2F8A8115960D2F8AC219A60704789
:101A6000162070476002002024207047034608B902
:101A700024207047024A002082F8C031704700BF1E
:101A8000600200200020704701480CF0FDBB00BF41
:101A90007915000808B5FFF7A1FF0A480A49102286
:101AA0004FF49A730DF038FB08B1012008BD0748C8
:101AB0000DF0FEFA0028F8D1054B012283F8B12180
:101AC00008BD00BFAD1900087919000869150008A4
:101AD0006002002010B5084C94F8B10100B910BDA7
:101AE00006480CF0D1FB06480DF0BEFA10B984F898
:101AF000B10110BD012010BD600200207915000861
:101B00006915000802484FF4967104220CF06ABB74
:101B100011210008002805DD034B0122C3F88000D5
:101B2000C3F884200020704724040020F8B50C4C32
:101B300000212046B82202F025F90A4F0A4E0B4D2B
:101B40000B480C4B4FF080414FF4FA626060E76045
:101B5000A66025606166E267C4F89C300020F8BD8D
:101B6000240400200000B4420000B4C2000070420F
:101B70000000F0417B142E3E01480CF085BB00BFF5
:101B80001121000808B5FFF7D1FF00B108BD0346D9
:101B9000054A0121C2F88C300448BDE80840C2F86B
:101BA00088100DF085BA00BF24040020051B000832
:101BB00010B5044C20460CF067FB2046BDE81040F1
:101BC0000CF062BB11210008024B0020C3F88C000E
:101BD000704700BF24040020024B0122C3F88C2070
:101BE000002070472404002038B558B1012819D0CE
:101BF000224B00220121C3F89810C3F88C20C3F8AF
:101C0000902038BD1D4B00240122C3F8A010C3F85A
:101C1000A410C3F89400C3F89800C3F8A840C3F810
:101C2000902038BD154D08460C46D5F8A01001F09F
:101C3000C7FCD5F89C1020F0004001F069FFB0B15E
:101C4000D5F8943020465C1CD5F8A410C5F8944013
:101C500001F0B8FC312CC5F8A4000DDD02230849C1
:101C6000C5F8903001F06AFEC5F8A80038BDC5F887
:101C70009000C5F8940038BD38BD00BF2404002092
:101C800000004842F0B506460D4614468FB005A93F
:101C90000CF07DFF01AA284631460CF0CFFC3046FF
:101CA00029460CF05FFD05AFA4F1040C04F1080215
:101CB0000DF1100E3C4601AB0020002153F8045FEB
:101CC00054F8046B7345C5FB0601F7D1830F43EA53
:101CD00081034CF8043F944507F10C07EAD10FB09B
:101CE000F0BD00BFF8B50446006801F01FFD0746CF
:101CF000606801F01BFD0646A06801F017FD39463B
:101D00000546384601F066FD31460446304601F08E
:101D100061FD0146204601F055FC2946044628464F
:101D200001F058FD0146204601F04CFC0EF0E6FBA8
:101D30004FF05E5101F04EFDF8BD00BF70B5054695
:101D40001B4C0E462068294601F0E2FE20B92846C9
:101D5000616801F0DDFE98B1636F154AABB10023F5
:101D60001A460121A3676167E36F1149934206DCBC
:101D70004B6F012B04BF0023CB650023636770BD4D
:101D80002369012B07D0A26FEEE702F11800916DD5
:101D90000DF032F8E3E7E068314601F0B9FE0028C3
:101DA000DAD13046A16801F0B3FE0028EBD0D3E7CA
:101DB0002404002038B505460C460DF04DF820B936
:101DC00028460C4901F0C2FE78B10B4B00221A6183
:101DD0005A615969084A2144B1F5FA7F596103DD16
:101DE000012100231161536138BD034B1A69002A98
:101DF000EFD038BD00401C46240400202DE9F04FF0
:101E0000B04D8DB0D5F888600024069407940894EE
:101E100026B9002318460DB0BDE8F08F1C461746C2
:101E2000009180460CF098F8002840F02981D5F800
:101E30008030A44E002B12DD0123C6F884300CF054
:101E40008BF8002840F0B080D6F88030C8EB030350
:101E5000C6F88030002BDCBF0023C5F884300DF0BD
:101E6000E7F80028D5D04FF0000A043C3E1F07F1E8
:101E7000080B56F8040F01F059FC4FF05E5101F0C9
:101E8000A9FC814654F8040F01F050FC0146484675
:101E900001F0A0FC4FF05E5101F09CFC0146504661
:101EA00001F090FB5E458246E3D13846FFF71AFF0A
:101EB00006465046314601F041FD4FF07E51044642
:101EC00001F044FE002867D04FF07E5420460EF00B
:101ED000EBFAD5F88C3007467A4C5BB13046216876
:101EE00001F016FE30B13046616801F02FFE002887
:101EF00040F0CA8009ACDFF8CCA120460CF0D4FF3A
:101F000020460AF1AC010C220FF0C6FE002855D184
:101F1000DAF89830012B51D0EA6D6A4B62B9012290
:101F2000DA6503F1180403F1580A204666491034B3
:101F30000CF07AFF5445F8D1DDF80090614C03AA0B
:101F4000484604F16401FFF79DFE04F16401484630
:101F50000CF008FC06A80CF058FB01F0E3FB4FF076
:101F6000725101F037FC4146FFF724FF30463946F5
:101F7000FFF7E4FEAB6FEA6F934201DA4344A367D5
:101F80006B6F504C002B7FF445AF206E4044B0F592
:101F90007A7F7FDC20663DE720464C4901F0B8FDA2
:101FA000002893D0494C91E706A80CF02EFBB0F521
:101FB000C84FD6F88030BFF449AF4BE7DFF804A133
:101FC000099B0AF1AC0E94E807008EE80700A3B95C
:101FD0000A9B93B90B9B83B9DAF898203C483D499A
:101FE000012ACAF80000CAF804107BD03A4A3B4BD9
:101FF000CAF80820CAF80C308EE72046FFF772FEB8
:102000000021044601F07AFD002885D1204634499C
:1020100001F0D6FA014601F0DDFB0EF06FFA30490F
:102020006860204601F0CEFA014601F0D3FB0EF0C5
:1020300065FA28600B9801F079FB4FF05E5101F0D2
:10204000C9FB214601F07AFC4FF07E51044601F0B5
:102050007DFD78B34FF07E5420460EF025FAD5F87A
:102060009C1001F0ADFAA86020460EF01DFAD5F8DC
:102070009C1001F0A7FA0023E860C5F88C304BE70C
:1020800006A80CF0CFF9D2E6D4F890003946FFF755
:10209000ABFD2FE704F12801302204F1180023667C
:1020A00004F05EFA04F1480004F158010CF0BCFEA3
:1020B000636FAFE62046054901F02AFD0028CBD02A
:1020C000024CC9E7240400207C040020000080BFEB
:1020D000000070420000F0410000B4C20000B442B1
:1020E00000002041DAF8A840DAF89CB020465946B2
:1020F000019301F065FA5946CAF80800204601F03C
:1021000061FA019BCAF80C00CAF8983004E700BFD6
:1021100070B5044688B001A80CF0D0FED4F8C030E9
:10212000D4F8C45004A85D1B0CF00EFF064604A9A9
:1021300004F1A00201AB2846FFF760FE0BF07AFF26
:10214000304608B070BD00BF014B586F704700BFEC
:1021500024040020000000002DE9F8430446006834
:102160000D4601F0E3FA0646606801F0DFFA8146A9
:10217000A06801F0DBFA8046E06801F0D7FA31464A
:102180000746304601F026FB49460646484601F020
:1021900021FB0146304601F015FA4146064640460D
:1021A00001F018FB0146304601F00CFA39460646AC
:1021B000384601F00FFB0146304601F003FA0021DA
:1021C000064601F0AFFC002832D130460EF096F9F9
:1021D00001464FF07E5001F0B1FB4FF09D4101F000
:1021E000F9FA0646206801F0A1FA314601F0F2FA48
:1021F00001F0CCFC2860606801F098FA314601F0EB
:10220000E9FA01F0C3FC6860A06801F08FFA31467A
:1022100001F0E0FA01F0BAFCA860E06801F086FA8B
:10222000314601F0D7FA01F0B1FCE860BDE8F8836F
:1022300000234FF0804285E80C00AB60EB60BDE806
:10224000F88300BF08B5084B0849186808220FF04A
:1022500023FD08B1322008BD0548C8211322BDE87E
:1022600008400BF0BFBF00BFDC0100201C240108A8
:102270002D2B0008F0B5866989B086EAE673A3EBDA
:10228000E673B3F5803F5CDAC369002BB8BF5B42ED
:10229000B3F5803F5DDBB3F5C80F71DD3C4D032323
:1022A000AB63836A6A6B04469A42394F6AD0184618
:1022B0007B6301F03BFA374901F040FB4FF09C4152
:1022C00001F088FA00F0F8FD2FA3D3E9002300F015
:1022D0004BFE0022304B00F047FE00222F4B00F057
:1022E0006DFF01F0F1F8014638630023304600939A
:1022F0000CF09EF9296B0190E0690CF099F9296BBB
:102300000290206A0CF094F904AA039069462048D0
:102310000CF094F9049D059C069A079B1C489B01B0
:1023200004A9AE01A5019401024607930496059500
:1023300006940CF005FA16480146FFF70DFF09B0A8
:10234000F0BDB3F5C80FA9DCC369002BB8BF5B4271
:10235000A1E7036A83EAE372A2EBE372B2F5803F7E
:1023600009DB002BB8BF5B42B3F5C80F96DC084D04
:102370000223AB6395E7064B00229A6309B0F0BDD8
:10238000036AEEE7396BB0E7182D4454FB2109408E
:10239000DC04002000247449000070400080664086
:1023A000036B5B0600D565E7704700BF30B5054697
:1023B000094C85B0204669460CF0D4F92846694698
:1023C00004F120020CF03AF928686968AA68EB6801
:1023D00010340FC405B030BDDC0400202DE9F04FEF
:1023E000436F9DB003F05003402B044600F0208261
:1023F000D0F82011874E01F05003402B00F0D3821B
:10240000CD0500F11581236B590600F1E881814D5E
:1024100005F1100205F1200029460CF00FF9636F59
:102420005A0656D5D4F82021236B1343DB0554D527
:1024300004F15C0110AA05F110000CF0FAF9226E0B
:10244000E16D82FB0223C1FB0123616E6FF0404806
:10245000C1FB01234FF00209904579EB0303C0F261
:10246000AF82B36B042B00F0BE829A1E012A40F2A9
:10247000BA81012B00F01E830124674BA40003FBEB
:1024800004F4119800252146800214950CF0D0F830
:10249000109B15905842214680020CF0C9F818AAEA
:1024A00016905E4914A817950CF0C8F85B4818A957
:1024B00002460CF045F959480146FFF74DFE6946C2
:1024C00054480CF04FF95548694600F110020CF0E1
:1024D000B5F800201DB0BDE8F08FE06D01F026F9E1
:1024E0000746206E01F022F98146606E01F01EF968
:1024F00039468046384601F06DF949460746484658
:1025000001F068F90146384601F05CF8414607469B
:10251000404601F05FF90146384601F053F8D4F81F
:102520006C800DF0EBFF4FF08D41074620F000402E
:1025300001F00CFB0028C2D0286901F0F7F84FF039
:10254000425101F047F91890686901F0EFF84FF037
:10255000425101F03FF91990A86901F0E7F84FF0F6
:10256000425101F037F91A90E86901F0DFF84FF0B5
:10257000425101F02FF900231B90E06D149301F0FC
:10258000D5F8394601F0DAF91590206E01F0CEF851
:10259000394601F0D3F91690606E01F0C7F839465C
:1025A00001F0CCF918AD04AA179014A928460CF034
:1025B00062F928460CA90CF0DBFA08AA04A80CA9B9
:1025C0000CF059F90A9F099C3946384601F002F986
:1025D00021468146204601F0FDF80146484600F0BC
:1025E000F1FF0F49814601F093FA002840F0038281
:1025F00048460C4901F08CFA002840F06F824846AA
:10260000094901F085FA002840F04882DFF81C9063
:10261000F3E100BFDC040020A69BC400EC04002012
:1026200017B751390AD7233CCDCC4C3ECDCCCC3E4C
:1026300048067FF5ECAED4F82C01734BD4F810218A
:1026400003FB00F335687148521B9A42CCBF032349
:10265000022311F40071836340F0C78110AF6B4D0A
:1026600038460BF02BFD384605F13C010C220FF0EB
:1026700013FB28B9AB6DD4F828219A4200F04182AF
:1026800018AD2B463A46616A20880CF025FB189855
:1026900001F04CF88046199801F048F882461A98E3
:1026A00001F044F841468146404601F093F8514616
:1026B0008046504601F08EF80146404600F082FF09
:1026C00049468046484601F085F80146404600F0FC
:1026D00079FF0DF013FF4E49804601F07BF84D491C
:1026E00001F02CF94FF05E5101F074F8D4F8289104
:1026F0008246484601F01AF80146504601F06AF851
:10270000454901F01BF94FF07C5101F063F8824616
:102710000DF050FE834650460DF088FE4FF080418C
:102720008246404601F0F4F9002840F0AF814FF0B6
:102730009D41584601F04EF801F028FA0AF1004A8E
:102740004FF09D41B064504601F044F8824618981D
:1027500000F0ECFF0146504601F03CF8414601F024
:10276000EDF801F013FAF064199800F0DFFF01466C
:10277000504601F02FF8414601F0E0F801F006FA6A
:1027800030651A9800F0D2FF0146504601F022F859
:10279000414601F0D3F801F0F9F970651F4B97E855
:1027A000070083E80700C6F8589004F58877384694
:1027B0002A461B490BF042FF14AA294619480BF080
:1027C0003DFF384617490BF0CDFF14A90F482A46A4
:1027D0000BF034FF28460D49FFF7BEFC17E62046F4
:1027E000FFF748FD13E6E16E0F4CCA1784FB011496
:1027F000C2EBE424012CB8BF0124032B7FF43DAECF
:102800000A4B03FB04F43CE671981C00DC04002036
:10281000DB0F4940000034430024744918050020B0
:102820002405002038050020AD8BDB68A69BC40082
:10283000C06D00F07BFF0546206E00F077FF074675
:10284000606E00F073FF29460646284600F0C2FF7E
:1028500039460546384600F0BDFF0146284600F0DF
:10286000B1FE31460546304600F0B4FF0146284629
:1028700000F0A8FE0DF042FE4FF07E51054601F03B
:1028800051F9002840F00D81606E00F04FFF29469D
:1028900001F054F805464FF07E50294600F090FEB6
:1028A0000021064601F052F9002800F02881304648
:1028B0004FF07C5100F08EFF0DF020FE4FF07E5166
:1028C0008046284600F07EFE0021054601F03EF9D4
:1028D000002800F0128128464FF07C5100F07AFF6A
:1028E0000DF00CFE8146E06D00F020FF0546206EE5
:1028F00000F01CFF29460646284600F06BFF3146D3
:102900000546304600F066FF0146284600F05AFEB4
:102910000DF0F4FD4FF07E51074601F003F9054636
:10292000002840F0BE804FF09D41484600F052FF25
:1029300001F02CF9744E08F100493061206E00F06E
:10294000F5FE394600F0FAFF0146404600F042FF2E
:102950004FF09D4100F03EFF01F018F97061E06D0D
:1029600000F0E4FE394600F0E9FF0146484600F079
:1029700031FF4FF09D4100F02DFF01F007F9F561A7
:10298000B061D4F82031DB0500F1A28069465E48D1
:102990000BF0E8FE5D48694600F110020BF04EFEB8
:1029A000D4F820112CE500F5887006F15C010BF0DD
:1029B000D9FE636FDF0500F19480D4F820111FE584
:1029C0000CA80CF041FB0D9A0C9982FB0223C1FB71
:1029D00001230E99C1FB0123904579EB0303BFF658
:1029E00040AD0423AB6300244BE504F588704649F1
:1029F000FFF7B2FB0BE5DFF82C91404600F096FEA6
:102A0000434900F09BFF494600F0E4FE81464FF049
:102A1000000849463846CDF8408000F0DBFE04F15E
:102A200000411190484600F0D5FE2946129008AAB0
:102A300010A8CDF84C800BF01EFF08A802462946CE
:102A40000BF09EFF08A80CF048F84FF09D41089845
:102A500000F0C0FE01F09AF84FF09D4130610998F6
:102A600000F0B8FE01F092F84FF09D4170610A98B5
:102A700000F0B0FE01F08AF84FF09D41B0610B9874
:102A800000F0A8FE01F082F8F06118E500234FF095
:102A90008042B264F364336573657FE64FF07A5920
:102AA000ABE7194E00234FF0804232617361B3618E
:102AB000F36166E7E26E174CD31784FB0224C3EB85
:102AC000E424002CC3BF144BE4005C43134CD8E453
:102AD00004F5887012490BF045FE57E7DFF848907F
:102AE0008BE7694630460BF03DFE694606F1100063
:102AF00006F120020BF0A2FD5FE70020F0E60020C7
:102B0000DAE618AD51E600BFDC040020EC0400203A
:102B10000014CD47AD8BDB68A69BC40030DD2406D6
:102B200038050020A69BC43B8FC2753D38B5036BAA
:102B3000DC0502D4436FD9050FD5D0F82031044607
:102B400003F44073B3F5407F11D0FFF747FCA16B4E
:102B50000C480CF039F9002038BDD0F82031DA05E6
:102B6000F9D503F44073B3F5407F0446EDD1D0F8B6
:102B70001001D4F81411D4F81821D4F81C31014DE7
:102B80000FC5E4E7EC04002001480BF07DBB00BF5B
:102B90002D2B000810B5074C002120466C2201F0B7
:102BA000F1F84FF08043236123602362E363E36520
:102BB000002010BDDC04002008B5FFF7EBFF00B1DA
:102BC00008BD0248BDE808400CF072BA4522000872
:102BD00008B504480BF058FBBDE8084002480CF06B
:102BE00043BA00BF2D2B000845220008AFF3008038
:102BF00081F0004102E000BF83F0004330B54FEAAE
:102C000041044FEA430594EA050F08BF90EA020F1A
:102C10001FBF54EA000C55EA020C7FEA645C7FEAAD
:102C2000655C00F0E2804FEA5454D4EB5555B8BFD0
:102C30006D420CDD2C4480EA020281EA030382EA41
:102C4000000083EA010180EA020281EA0303362DD3
:102C500088BF30BD11F0004F4FEA01314FF4801CA6
:102C60004CEA113102D0404261EB410113F0004FB8
:102C70004FEA03334CEA133302D0524263EB43036F
:102C800094EA050F00F0A780A4F10104D5F1200E0D
:102C90000DDB02FA0EFC22FA05F2801841F1000168
:102CA00003FA0EF2801843FA05F359410EE0A5F13C
:102CB00020050EF1200E012A03FA0EFC28BF4CF06D
:102CC000020C43FA05F3C01851EBE37101F0004523
:102CD00007D54FF0000EDCF1000C7EEB00006EEB30
:102CE0000101B1F5801F1BD3B1F5001F0CD34908BA
:102CF0005FEA30004FEA3C0C04F101044FEA445211
:102D000012F5800F80F09A80BCF1004F08BF5FEA97
:102D1000500C50F1000041EB045141EA050130BD77
:102D20005FEA4C0C404141EB0101013C28BFB1F589
:102D3000801FE9D291F0000F04BF01460020B1FAD4
:102D400081F308BF2033A3F10B03B3F120020CDAA7
:102D50000C3208DD02F1140CC2F10C0201FA0CF085
:102D600021FA02F10CE002F11402D8BFC2F1200CEA
:102D700001FA02F120FA0CFCDCBF41EA0C019040A0
:102D8000E41AA2BF01EB0451294330BD6FEA0404E9
:102D90001F3C1CDA0C340EDC04F11404C4F12002D4
:102DA00020FA04F001FA02F340EA030021FA04F3E6
:102DB00045EA030130BDC4F10C04C4F1200220FA3D
:102DC00002F001FA04F340EA0300294630BD21FA7B
:102DD00004F0294630BD94F0000F83F4801306BF41
:102DE00081F480110134013D4EE77FEA645C18BF35
:102DF0007FEA655C29D094EA050F08BF90EA020FCC
:102E000005D054EA000C04BF1946104630BD91EAC3
:102E1000030F1EBF0021002030BD5FEA545C05D1C6
:102E20004000494128BF41F0004130BD14F5800405
:102E30003CBF01F5801130BD01F0004545F0FE4179
:102E400041F470014FF0000030BD7FEA645C1ABFAE
:102E5000194610467FEA655C1CBF0B46024650EAE5
:102E6000013406BF52EA033591EA030F41F4002111
:102E700030BD00BF90F0000F04BF0021704730B597
:102E80004FF4806404F132044FF000054FF000016C
:102E900050E700BF90F0000F04BF0021704730B52D
:102EA0004FF4806404F1320410F0004548BF404202
:102EB0004FF000013EE700BF42004FEAE2014FEA57
:102EC00031014FEA02701FBF12F07F4393F07F4F32
:102ED00081F06051704732F07F4208BF704793F035
:102EE0007F4F04BF41F40021704730B54FF4607448
:102EF00001F0004521F000411CE700BF50EA01024B
:102F000008BF704730B54FF000050AE050EA0102F3
:102F100008BF704730B511F0004502D5404261EB63
:102F200041014FF4806404F132045FEA915C3FF4A4
:102F3000D8AE4FF003025FEADC0C18BF03325FEA41
:102F4000DC0C18BF033202EBDC02C2F1200300FAF2
:102F500003FC20FA02F001FA03FE40EA0E0021FA17
:102F600002F11444BDE600BF70B54FF0FF0C4CF405
:102F7000E06C1CEA11541DBF1CEA135594EA0C0FB7
:102F800095EA0C0F00F0DEF82C4481EA030621EAF2
:102F90004C5123EA4C5350EA013518BF52EA03352D
:102FA00041F4801143F4801338D0A0FB02CE4FF0DF
:102FB0000005E1FB02E506F00042E0FB03E54FF00F
:102FC0000006E1FB03569CF0000F18BF4EF0010E07
:102FD000A4F1FF04B6F5007F64F5407404D25FEA03
:102FE0004E0E6D4146EB060642EAC62141EA5551B6
:102FF0004FEAC52040EA5E504FEACE2EB4F1FD0CF8
:1030000088BFBCF5E06F1ED8BEF1004F08BF5FEA75
:10301000500E50F1000041EB045170BD06F0004627
:1030200046EA010140EA020081EA0301B4EB5C04D4
:10303000C2BFD4EB0C0541EA045170BD41F48011CC
:103040004FF0000E013C00F3AB8014F1360FDEBFF1
:10305000002001F0004170BDC4F10004203C35DACD
:103060000C341BDC04F11404C4F1200500FA05F350
:1030700020FA04F001FA05F240EA020001F00042F1
:1030800021F0004110EBD37021FA04F642EB060167
:103090005EEA430E08BF20EAD37070BDC4F10C0491
:1030A000C4F1200500FA04F320FA05F001FA04F255
:1030B00040EA020001F0004110EBD37041F1000141
:1030C0005EEA430E08BF20EAD37070BDC4F120054C
:1030D00000FA05F24EEA020E20FA04F301FA05F2B4
:1030E00043EA020321FA04F001F0004121FA04F25C
:1030F00020EA020000EBD3705EEA430E08BF20EA2C
:10310000D37070BD94F0000F0FD101F00046400065
:1031100041EB010111F4801F08BF013CF7D041EAE7
:10312000060195F0000F18BF704703F000465200EB
:1031300043EB030313F4801F08BF013DF7D043EABC
:103140000603704794EA0C0F0CEA135518BF95EA72
:103150000C0F0CD050EA410618BF52EA4306D1D1F9
:1031600081EA030101F000414FF0000070BD50EA18
:10317000410606BF1046194652EA430619D094EAA2
:103180000C0F02D150EA013613D195EA0C0F05D18C
:1031900052EA03361CBF104619460AD181EA0301E0
:1031A00001F0004141F0FE4141F470014FF0000098
:1031B00070BD41F0FE4141F4780170BD70B54FF033
:1031C000FF0C4CF4E06C1CEA11541DBF1CEA1355B3
:1031D00094EA0C0F95EA0C0F00F0A7F8A4EB050495
:1031E00081EA030E52EA03354FEA013100F088808C
:1031F0004FEA03334FF0805545EA131343EA126355
:103200004FEA022245EA111545EA10654FEA002609
:103210000EF000419D4208BF964244F1FD0404F5C2
:10322000407402D25B084FEA3202B61A65EB03051E
:103230005B084FEA32024FF480104FF4002CB6EBDB
:10324000020E75EB030E22BFB61A754640EA0C005B
:103250005B084FEA3202B6EB020E75EB030E22BF9B
:10326000B61A754640EA5C005B084FEA3202B6EBDC
:10327000020E75EB030E22BFB61A754640EA9C009B
:103280005B084FEA3202B6EB020E75EB030E22BF6B
:10329000B61A754640EADC0055EA060E18D04FEA29
:1032A000051545EA16754FEA06164FEAC30343EAC9
:1032B00052734FEAC2025FEA1C1CC0D111F4801F96
:1032C0000BD141EA00014FF000004FF0004CB6E78F
:1032D00011F4801F04BF01430020B4F1FD0C88BF2E
:1032E000BCF5E06F3FF6AFAEB5EB030C04BFB6EB39
:1032F000020C5FEA500C50F1000041EB045170BD2C
:103300000EF0004E4EEA113114EB5C04C2BFD4EB58
:103310000C0541EA045170BD41F480114FF0000EDC
:10332000013C90E645EA060E8DE60CEA135594EA58
:103330000C0F08BF95EA0C0F3FF43BAF94EA0C0F5B
:103340000AD150EA01347FF434AF95EA0C0F7FF4D0
:1033500025AF104619462CE795EA0C0F06D152EA24
:1033600003353FF4FDAE1046194622E750EA410608
:1033700018BF52EA43067FF4C5AE50EA41047FF419
:103380000DAF52EA43057FF4EBAE12E74FF0FF3C7E
:1033900006E000BF4FF0010C02E000BF4FF0010C4F
:1033A0004DF804CD4FEA410C7FEA6C5C4FEA430CC8
:1033B00018BF7FEA6C5C1BD001B050EA410C0CBF17
:1033C00052EA430C91EA030F02BF90EA020F002079
:1033D000704710F1000F91EA030F58BF994208BFE0
:1033E00090422CBFD8176FEAE37040F0010070479D
:1033F0004FEA410C7FEA6C5C02D150EA013C07D1F4
:103400004FEA430C7FEA6C5CD6D152EA033CD3D03E
:103410005DF8040B704700BF8446104662468C4638
:103420001946634600E000BF01B5FFF7B7FF00286B
:1034300048BF10F1000F01BD4DF808EDFFF7F4FF94
:103440000CBF012000205DF808FB00BF4DF808ED1F
:10345000FFF7EAFF34BF012000205DF808FB00BF42
:103460004DF808EDFFF7E0FF94BF012000205DF864
:1034700008FB00BF4DF808EDFFF7CEFF94BF012019
:1034800000205DF808FB00BF4DF808EDFFF7C4FF12
:1034900034BF012000205DF808FB00BF4FEA410C5B
:1034A0007FEA6C5C02D150EA013C0AD14FEA430C3E
:1034B0007FEA6C5C02D152EA033C02D14FF000007B
:1034C00070474FF0010070474FEA410212F50012B9
:1034D00015D211D56FF47873B3EB625212D94FEA5B
:1034E000C12343F0004343EA505311F0004F23FA45
:1034F00002F018BF404270474FF00000704750EA9A
:10350000013005D111F0004008BF6FF00040704756
:103510004FF00000704700BF4FEA4102B2F1E043B4
:1035200024BFB3F5001CDCF1FE5C0DD901F0004CAA
:103530004FEAC0024CEA5070B2F1004F40EB8300FA
:1035400008BF20F00100704711F0804F21D113F126
:103550003872BCBF01F00040704741F480114FEA5F
:103560005252C2F11802C2F1200C10FA0CF320FAE8
:1035700002F018BF40F001004FEAC1234FEAD32305
:1035800003FA0CFC40EA0C0023FA02F34FEA43036F
:10359000CCE77FEA625307D150EA01331EBF4FF0F8
:1035A000FE4040F44000704701F0004040F0FE4013
:1035B00040F40000704700BF80F0004002E000BF10
:1035C00081F0004142001FBF5FEA410392EA030F0E
:1035D0007FEA226C7FEA236C6AD04FEA1262D2EB58
:1035E0001363C1BFD218414048404140B8BF5B425D
:1035F000192B88BF704710F0004F40F4000020F0F6
:103600007F4018BF404211F0004F41F4000121F00B
:103610007F4118BF494292EA030F3FD0A2F1010255
:1036200041FA03FC10EB0C00C3F1200301FA03F193
:1036300000F0004302D5494260EB4000B0F5000FB6
:1036400013D3B0F1807F06D340084FEA310102F175
:103650000102FE2A51D2B1F1004F40EBC25008BF27
:1036600020F0010040EA03007047490040EB0000F1
:10367000013A28BFB0F5000FEDD2B0FA80FCACF1F2
:10368000080CB2EB0C0200FA0CF0AABF00EBC2501F
:1036900052421843BCBFD0401843704792F0000F0D
:1036A00081F4000106BF80F400000132013BB5E760
:1036B0004FEA41037FEA226C18BF7FEA236C21D0D6
:1036C00092EA030F04D092F0000F08BF084670473B
:1036D00090EA010F1CBF0020704712F07F4F04D109
:1036E000400028BF40F00040704712F100723CBF1C
:1036F00000F50000704700F0004343F0FE4040F446
:10370000000070477FEA226216BF08467FEA236303
:103710000146420206BF5FEA412390EA010F40F4EE
:10372000800070474FF0000304E000BF10F000433A
:1037300048BF40425FEA000C08BF704743F0964321
:1037400001464FF000001CE050EA010208BF70473C
:103750004FF000030AE000BF50EA010208BF7047C3
:1037600011F0004302D5404261EB41015FEA010CD8
:1037700002BF84460146002043F0B64308BFA3F1D0
:103780008053A3F50003BCFA8CF2083AA3EBC253B2
:1037900010DB01FA02FC634400FA02FCC2F12002D1
:1037A000BCF1004F20FA02F243EB020008BF20F008
:1037B0000100704702F1200201FA02FCC2F120026E
:1037C00050EA4C0021FA02F243EB020008BF20EA63
:1037D000DC7070474FF0FF0C1CEAD0521EBF1CEA91
:1037E000D15392EA0C0F93EA0C0F6FD01A4480EA7F
:1037F000010C400218BF5FEA41211ED04FF0006368
:1038000043EA501043EA5111A0FB01310CF0004093
:10381000B1F5000F3EBF490041EAD3715B0040EAB9
:10382000010062F17F02FD2A1DD8B3F1004F40EB89
:10383000C25008BF20F00100704790F0000F0CF05C
:10384000004C08BF49024CEA502040EA51207F3A20
:10385000C2BFD2F1FF0340EAC250704740F40000FB
:103860004FF00003013A5DDC12F1190FDCBF00F0EC
:1038700000407047C2F10002410021FA02F1C2F19A
:10388000200200FA02FC5FEA310040F1000053EA36
:103890004C0308BF20EADC70704792F0000F00F084
:1038A000004C02BF400010F4000F013AF9D040EA8A
:1038B0000C0093F0000F01F0004C02BF490011F41E
:1038C000000F013BF9D041EA0C018FE70CEAD1531C
:1038D00092EA0C0F18BF93EA0C0F0AD030F0004C9C
:1038E00018BF31F0004CD8D180EA010000F0004050
:1038F000704790F0000F17BF90F0004F084691F00E
:10390000000F91F0004F14D092EA0C0F01D1420247
:103910000FD193EA0C0F03D14B0218BF084608D110
:1039200080EA010000F0004040F0FE4040F400005A
:10393000704740F0FE4040F4400070474FF0FF0CED
:103940001CEAD0521EBF1CEAD15392EA0C0F93EA34
:103950000C0F69D0A2EB030280EA010C49024FEA86
:10396000402037D04FF0805343EA111143EA10133F
:103970000CF000408B4238BF5B0042F17D024FF4F7
:10398000000C8B4224BF5B1A40EA0C00B3EB510FD2
:1039900024BFA3EB510340EA5C00B3EB910F24BFBB
:1039A000A3EB910340EA9C00B3EBD10F24BFA3EB40
:1039B000D10340EADC001B0118BF5FEA1C1CE0D108
:1039C000FD2A3FF650AF8B4240EBC25008BF20F0BB
:1039D000010070470CF0004C4CEA50207F32C2BF0F
:1039E000D2F1FF0340EAC250704740F400004FF0AC
:1039F0000003013A37E792F0000F00F0004C02BFDD
:103A0000400010F4000F013AF9D040EA0C0093F0A6
:103A1000000F01F0004C02BF490011F4000F013B00
:103A2000F9D041EA0C0195E70CEAD15392EA0C0F68
:103A300008D142027FF47DAF93EA0C0F7FF470AFA0
:103A4000084676E793EA0C0F04D14B023FF44CAFE3
:103A500008466EE730F0004C18BF31F0004CCAD178
:103A600030F000427FF45CAF31F000437FF43CAFB4
:103A70005FE700BF4FF0FF3C06E000BF4FF0010CD6
:103A800002E000BF4FF0010C4DF804CD4FEA4002B8
:103A90004FEA41037FEA226C18BF7FEA236C11D002
:103AA00001B052EA530C18BF90EA010F58BFB2EBB5
:103AB000030088BFC81738BF6FEAE17018BF40F035
:103AC000010070477FEA226C02D15FEA402C05D1E9
:103AD0007FEA236CE4D15FEA412CE1D05DF8040B6E
:103AE000704700BF844608466146FFE70FB5FFF701
:103AF000C9FF002848BF10F1000F0FBD4DF808EDB9
:103B0000FFF7F4FF0CBF012000205DF808FB00BFA9
:103B10004DF808EDFFF7EAFF34BF012000205DF803
:103B200008FB00BF4DF808EDFFF7E0FF94BF012050
:103B300000205DF808FB00BF4DF808EDFFF7D2FF4D
:103B400094BF012000205DF808FB00BF4DF808ED90
:103B5000FFF7C8FF34BF012000205DF808FB00BF5D
:103B60004FEA40024FEA41037FEA226C02D15FEA4A
:103B7000402C08D17FEA236C02D15FEA412C02D1AC
:103B80004FF0000070474FF0010070474FEA4002CD
:103B9000B2F1FE4F0FD34FF09E03B3EB12620DD97B
:103BA0004FEA002343F0004310F0004F23FA02F0E5
:103BB00018BF404270474FF00000704712F1610F8C
:103BC00001D1420205D110F0004008BF6FF0004063
:103BD00070474FF00000704742000ED2B2F1FE4F26
:103BE0000BD34FF09E03B3EB126209D44FEA0023CC
:103BF00043F0004323FA02F070474FF00000704793
:103C000012F1610F01D1420202D14FF0FF30704733
:103C10004FF00000704700BF7BB972B90029BEBFEA
:103C200000204FF0004106E008BF00281CBF6FF0E5
:103C300000414FF0FF3000F03FB8ADF1080C6DE9E6
:103C400004CE002909DB002B1ADB0DF0CBFEDDF8DA
:103C500004E0DDE9022304B07047404261EB41011A
:103C6000002B1BDB0DF0BEFEDDF804E0DDE90223D6
:103C700004B0404261EB4101524263EB43037047A1
:103C8000524263EB43030DF0ADFEDDF804E0DDE9E5
:103C9000022304B0404261EB41017047524263EBA2
:103CA00043030DF09FFEDDF804E0DDE9022304B0DC
:103CB000524263EB43037047704700BF4A0011D282
:103CC00012F5001211D20DD56FF47873B3EB625276
:103CD0000ED44FEAC12343F0004343EA505323FA82
:103CE00002F070474FF00000704750EA013002D1F7
:103CF0004FF0FF3070474FF00000704710B5054C93
:103D0000237833B9044B13B10448AFF30080012387
:103D1000237010BD4805002000000000B41C0108FD
:103D200008B5034B1BB103490348AFF3008008BD3E
:103D3000000000004C050020B41C010870B50026EE
:103D40000C4D0D4C641BA410A64209D10DF0B2FF1E
:103D500000260A4D0A4C641BA410A64205D170BD72
:103D600055F8043B98470136EEE755F8043B984771
:103D70000136F2E7382801083828010838280108F8
:103D80003C28010803460244934200D1704703F8DF
:103D9000011BF9E7002B2DE9F0471F46BBBF03F1DC
:103DA00000431F4600232D2388B01446129A109D0D
:103DB0001370149BDDF84CA023F02008B8F1460FD7
:103DC00005D0B8F1450F00D10135022300E00323EF
:103DD00007AA049206AACDE902A2CDE9003522463F
:103DE0003B4600F0C5FCB8F1470F064602D1119BD7
:103DF000DB0722D5B8F1460F06EB050910D1337861
:103E0000302B0AD10022002320463946FFF714FB4D
:103E100018B9C5F10105CAF80050DAF80030994424
:103E20000022002320463946FFF706FB08B1CDF8F3
:103E30001C903022079B4B4507D33046079B159AB1
:103E40009B1B136008B0BDE8F087591C07911A70DE
:103E5000F0E70346F7B5002903F8022BB6BF2D2281
:103E60002B224942092942702BDD0DF10704A4469B
:103E70000A2791FBF7F60A46A64607FB1615632AA2
:103E800005F13005314604F1FF340EF8015CF0DC39
:103E90003031AEF1020504F8011C2946441C61458D
:103EA0000AD30DF10902A2EB0E02654588BF00227C
:103EB0001344181A03B0F0BD11F8012B04F8012FB8
:103EC000EDE7302330318370C170031DF1E700004E
:103ED0002DE9F04F91B00C46DDF8688016461F467C
:103EE000054601F033FA036818460993FCF710F908
:103EF00000230E93D8F800300A90073323F007030D
:103F000003F1080294F81890D4F800B0C8F8002023
:103F1000D3E90023C4E91223D4E9128A2AF000432A
:103F20000B934FF0FF3240469C4B0B99FFF7B6FACC
:103F300070BB4FF0FF324046984B0B99FFF790FA59
:103F400030BB0022002340465146FFF77FFA10B1F4
:103F50002D2384F84330924B9248B9F1470F94BF18
:103F60009846804603234FF0000A23612BF0040398
:103F7000236033462146284600970FAA00F0D4F963
:103F8000013040F090804FF0FF3011B0BDE8F08F6D
:103F90004246534640465146FFF780FA48B1BAF1CF
:103FA000000FB8BF2D238048B8BF84F843307F4B43
:103FB000D3E7636809F0DF015A1C42D1062363602E
:103FC000002206920EAACDE904920DAA4BF480635A
:103FD00003920DF13302CDE901322360636842465A
:103FE0000093284653460B91FFF7D4FE0B99804669
:103FF00047290D9908D1C81C02DB6368994240DD4E
:10400000A9F102095FFA89F9B9F1650F1FD84A468B
:10401000013904F150000D91FFF71BFF0E9A824603
:104020001318012A236102DC2268D20701D501336B
:1040300023619DF83330002B9BD02D2384F843302F
:1040400097E74729BCD1002BBAD10123B7E7B9F1D3
:10405000660F18D1002963680BDD216113B922684E
:10406000D00702D501330B4423614FF0000AA1654C
:10407000DFE713B92268D20701D50233F4E7012341
:10408000F2E74FF067090E9B994205DB2368216137
:10409000D807EAD54B1CE7E70029CCBF0122C1F1C4
:1040A00002021344E0E723685A0507D42369424615
:1040B00031462846B84701302BD164E7B9F1650F86
:1040C00040F2DD80D4E9120100220023FFF7B4F9A9
:1040D000002833D0012331462846354AB8470130FD
:1040E0003FF451AFDDE90D239A4202DB2368D80784
:1040F0000FD5DDE9092331462846B84701303FF4A2
:1041000042AF4FF0000804F11A090E9B013B4345F2
:1041100009DC23689B0700F10281E0680F9B98424D
:10412000B8BF184631E701234A4631462846B8470A
:1041300001303FF428AF08F10108E6E70D9B002BA2
:1041400038DC012331462846194AB84701303FF48C
:104150001AAFDDE90D23134302D12368D907D8D55F
:10416000DDE9092331462846B84701303FF40BAF5B
:104170004FF0000904F11A0A0D9B5B424B4501DC2C
:104180000E9B94E70123524631462846B84701303A
:104190003FF4F9AE09F10109EEE700BFFFFFEF7F41
:1041A000001E0108041E01080C1E0108081E01085B
:1041B000101E01080E9AA36D9A42A8BF1A46002A43
:1041C000914637DC4FF0000B29EAE97904F11A0235
:1041D000D4F858A0AAEB09035B4533DCDDE90D23D5
:1041E0009A423BDB2368DA0738D40E9A0D99A2EB8A
:1041F0000A03A2EB01099945A8BF9946B9F1000F3E
:1042000034DC4FF0000829EAE97904F11A0ADDE903
:104210000D239B1AA3EB090343457FF77AAF0123D4
:10422000524631462846B84701303FF4ACAE08F15B
:104230000108ECE71346314642462846B8470130AC
:10424000C0D1A0E60123314628460B92B847013081
:104250003FF499AE0B9A0BF1010BB9E73146DDE95A
:1042600009232846B8470130BFD18CE64B4631467A
:10427000284608EB0A02B8470130C2D183E60E9AFD
:10428000012A01DCDB0737D50123424631462846A7
:10429000B84701303FF477AEDDE9092331462846BF
:1042A000B84701303FF46FAED4E912010022002379
:1042B000FFF7C2F8D8B90E9B08F10102013B314665
:1042C0002846B84701300ED15DE601234A46314603
:1042D0002846B84701303FF456AE08F101080E9B5E
:1042E000013B4345F1DC534604F15002E0E64FF058
:1042F000000804F11A09F2E701234246DFE701232F
:104300004A4631462846B84701303FF43CAE08F1F2
:104310000108E3680F995B1A4345F0DCFDE64FF0B6
:10432000000804F11909F4E72DE9F047164699460B
:104330008A680B6907469342B8BF1346336091F809
:1043400043200C46DDF820800AB101333360236836
:10435000990642BF336802333360256815F00605BD
:1043600006D104F1190AE36832689B1AAB4228DCD3
:1043700094F84320131E226818BF012392062DD4FF
:104380004946384604F14302C047013020D0236833
:10439000E56803F00603042B18BF002532684FF0D0
:1043A0000006A36808BFAD1A226908BF25EAE575B3
:1043B0009342C4BF9B1AED181A34B5421AD100209B
:1043C00008E00123524649463846C047013003D130
:1043D0004FF0FF30BDE8F0870135C4E73020E11829
:1043E00081F843005A1C94F845102244023382F8A5
:1043F0004310C5E70123224649463846C0470130ED
:10440000E6D00136D9E700002DE9FF470C46277EAC
:104410009146782F80469A460C9904F1430207D8BA
:10442000622F0AD8002F00F0D980582F00F0A48006
:1044300004F1420684F842703AE0A7F16303152BB9
:10444000F6D801A050F823F0A1440008B5440008B4
:104450003144000831440008314400083144000868
:10446000B5440008314400083144000831440008D4
:1044700031440008C3450008E5440008A54500088C
:104480003144000831440008E54500083144000883
:10449000E54400083144000831440008AD450008F7
:1044A0000B6804F142061A1D1B680A6084F842304A
:1044B0000123A4E0256808682E0600F104030AD54C
:1044C00005680B60002D03DA2D236D4284F843301C
:1044D0000A235E4819E015F0400F05680B6018BF0D
:1044E0002DB2EFE70B682568181D0860280601D576
:1044F0001D6802E06906FBD51D886F2F0CBF0823DD
:104500000A235248002184F843106668002EA8BF91
:104510002168A660A4BF21F0040121600DB9002E1E
:104520004DD01646B5FBF3F103FB1157C75D06F8F6
:10453000017D2F46BB420D46F4D9082B0BD12368D1
:10454000DF0708D5236961689942DEBF302306F88A
:10455000013C06F1FF36921B22614B462146404644
:10456000CDF800A003AAFFF7DFFE01304CD14FF0D9
:10457000FF3004B0BDE8F087344884F845700E6819
:10458000236856F8045B1F060E6014D5D90744BF94
:1045900043F0200323601DB9236823F02003236028
:1045A0001023AFE7236843F02003236078232848D3
:1045B00084F84530E3E75E0648BFADB2E6E716464D
:1045C000BBE70B6826681D1D60690D6035061B681A
:1045D00001D5186002E07106FBD51880002316464D
:1045E0002361BAE70B681A1D0A601E680021304675
:1045F000626800F0CDFE08B1801B606063682361D3
:10460000002384F84330A8E73246494640462369F0
:10461000D0470130ABD023689B0713D4E068039BDD
:104620009842B8BF1846A4E701233246494640469F
:10463000D04701309BD00135E36803995B1AAB4248
:10464000F2DCEBE7002504F11906F5E7121E01087C
:10465000231E01082DE9F74F03690C690746A342A1
:10466000C0F28380013C00F1140501F1140805EB50
:104670008403019358F8243055F8242001339A42DA
:10468000B2FBF3F64FEA840B08EB840932D34FF008
:10469000000E4046AC46F24650F8042B93B206FB9F
:1046A00003E3120C4FEA134E06FB02E29BB2AAEBA5
:1046B0000303DCF800A04FEA124E1FFA8AFA5344B3
:1046C0001FFA82FADCF800208145CAEB124202EBA5
:1046D00023429BB243EA02434FEA224A4CF8043B8E
:1046E000DAD255F80B302BB9019B043B9D421A4698
:1046F0002FD33C61384601F0E1F8002825DB28463D
:104700004FF0000C013658F8041BD0F800E08BB2D3
:10471000ACEB03031FFA8EF213440A0CC2EB1E42E9
:1047200002EB23429BB243EA0243C1454FEA224CCB
:1047300040F8043BE7D255F8242005EB840322B966
:10474000043B9D421A460AD33C61304603B0BDE8A3
:10475000F08F1268043B002ACBD1013CC6E71268F7
:10476000043B002AF0D1013CEBE70020EEE700001B
:104770002DE9F04F16461F46446A99B00546CDE92B
:104780000467DDF8948074B9102000F0E7FD02465C
:10479000686220B9EA21A84BA84801F069FAC0E98B
:1047A00001440460C4606B6A196851B15A680123FE
:1047B00093404A608B60284600F046FE00226B6AF8
:1047C0001A603B1EAFBF0023012223F00043059374
:1047D000A8BFC8F80030DDF81490994BB8BFC8F8EE
:1047E000002033EA090319D142F20F73249A1360AF
:1047F000C9F31303334300F08085269B53B9914BD3
:1048000022E0914B08930833269A1360089819B058
:10481000BDE8F08F8B4B08930333F5E7DDE90434F3
:10482000CDE90C34DDE90C0100220023FEF704FE83
:10483000804658B10123249A1360269B002B00F078
:10484000598582481860431E0893DFE716AB019331
:1048500017AB00932846DDE90C2301F0DBF8C9F320
:104860000A548246002C7FD0DDE90C010D9BA4F296
:10487000FF34C3F3130343F07F5141F44011CDF8EB
:104880004C800022724BFEF7B7F965A3D3E90023F1
:10489000FEF76AFB64A3D3E90023FEF7AFF90646EF
:1048A00020460F46FEF7F6FA61A3D3E90023FEF790
:1048B0005BFB02460B4630463946FEF79FF906463B
:1048C0000F46FEF701FE002281460023304639469E
:1048D000FEF7BCFD48B14846FEF7DCFA32463B46DF
:1048E000FEF7AAFD08B909F1FF39B9F1160F58D83A
:1048F000DDE90C01574B03EBC903D3E90023FEF7B5
:10490000A5FD00284FD0002309F1FF390F93169B16
:104910001C1B631E099349BFC4F1010300230693C6
:10492000002354BF06930993B9F1000F3DDB099BA7
:10493000CDF838904B44099300230A93229B092B0E
:1049400000F28C80052BC4BF043B2293229BC8BF7E
:104950000024A3F10203D8BF0124032B00F28A80B4
:10496000DFE803F02D4F4D5BDDE916431C4404F2F4
:104970003243202BC3BFC3F1400304F2124009FAB3
:1049800003F3C3F12003C6BF26FA00F0184306FA6A
:1049900003F0FEF76FFA0123A1F1F871013C1393C4
:1049A0006FE70123B2E70F90B1E7069BA3EB090382
:1049B0000693C9F100030A9300230E93BEE7002378
:1049C0000B93239B002B58DC4FF0010B5B46CDF87B
:1049D00008B0CDF88CB00022686A4260042202F16F
:1049E00014069E4241684ED9284600F0EDFC08901E
:1049F00000284CD102464FF4D571174BCCE6012369
:104A0000DEE700230B93239B09EB030B0BF1010360
:104A1000012B0293B8BF0123DDE70123F2E700BFBA
:104A200061436F63A787D23FB3C8608B288AC63FB4
:104A3000FB799F501344D33F411E0108581E0108C3
:104A40000000F07F3D1E0108341E0108111E010800
:104A50000000F83F201F0108971E010801240023D1
:104A60000B9422934FF0FF3B00221223CDF808B0A5
:104A70002392B0E701230B93F4E7DDF88CB05B469B
:104A8000CDF808B0A7E7013141605200A7E76B6A93
:104A9000089A1A60029B0E2B00F2A880002C00F0EE
:104AA000A580B9F1000F34DD9A4A09F00F0302EB3B
:104AB000C30319F4807FD3E90034CDE910344FEA01
:104AC000291416D0DDE90C01934B0327D3E9082301
:104AD000FEF774FBCDE9040104F00F048E4E54B9C7
:104AE000DDE91023DDE90401FEF768FBCDE90401EF
:104AF00029E00227F2E7E10708D5DDE91001D6E950
:104B00000023FEF731FACDE91001013764100836B1
:104B1000E5E700F0A580DDE90C01C9F100047D4B5B
:104B200004F00F0203EBC203D3E90023FEF71CFAE3
:104B300002270023CDE90401774E2411002C40F018
:104B40008480002BD2D10F9B002B00F08B80DDE9FD
:104B50000434CDE91034DDE9100100226F4BFEF77B
:104B600075FC00287ED0029B002B7BD0BBF1000F90
:104B700038DDDDE910010022694BFEF7F5F95C46EE
:104B8000CDE9040109F1FF3801373846FEF782F913
:104B9000DDE90423FEF7E8F90022624BFEF72EF868
:104BA000A1F15076CDE910011196002C5DD1DDE91F
:104BB000040100225C4BFEF71FF802460B46CDE9CC
:104BC00004233346109AFEF75FFC002840F09E82D3
:104BD000DDE90401109A06F10043FEF737FC0028D6
:104BE00040F09282DDE90C34CDE90434179B002BB0
:104BF000C0F25381B9F10E0F00F34F81454B03EB27
:104C0000C903D3E90034CDE90634239B002B80F29D
:104C1000DB80029B002B00F3D78040F07482DDE93B
:104C200006010022404BFEF79FF9DDE90423FEF761
:104C300021FC029C2646002840F04A823123089F2E
:104C400009F1010907F8013B46E2E20705D5D6E97B
:104C50000023FEF789F901230137641008366DE758
:104C6000022770E7C846029C8FE70899294B214428
:104C700012910B9903EBC403DDE9106753E902239A
:104C8000002955D000202949FEF798FA3B463246C4
:104C9000FDF7B2FFCDE91001089FDDE90401FEF741
:104CA00013FC0446FEF7F6F802460B46DDE9040164
:104CB000FDF7A2FF02460B463034CDE90423DDE9BF
:104CC000102307F8014BFEF7C1FB002874D1DDE982
:104CD000042300201149FDF78FFFDDE91023FEF7C3
:104CE000B5FB002840F0B680129B9F423FF47AAF9C
:104CF000DDE9100100220A4BFEF736F90022CDE96A
:104D00001001DDE90401064BFEF72EF9CDE904019F
:104D1000C3E700BF201F0108F81E01080000F03F94
:104D20000000244000001C40000014400000E03F50
:104D300030463946FEF718F9129BCDE91001089C60
:104D40001493DDE90401FEF7BFFB1590FEF7A2F80E
:104D500002460B46DDE90401FDF74EFF159B0646B2
:104D6000303304F8013B129B0F469C424FF0000287
:104D700024D1DDE91001B34BFDF740FF02460B469D
:104D800030463946FEF780FB002862D1DDE910236A
:104D90000020AC49FDF730FF02460B46304639464D
:104DA000FEF754FB00283FF41DAF149F7B1E1493A5
:104DB00017F8013C302BF8D0C1463AE0A24BFEF781
:104DC000D3F8CDE90401BCE7089FDDE90623DDE95E
:104DD0000401FEF7F3F9FEF777FB0446FEF75AF8F5
:104DE000DDE90623FEF7C0F804F130060B46024663
:104DF000DDE90401FDF700FF07F8016B089E029B47
:104E0000BE1BB3423AD102460B46FDF7F7FE0246FF
:104E10000B46CDE90223DDE90623FEF735FB58BB3F
:104E2000DDE90623DDE90201FEF706FB08B1E10733
:104E300022D42846514600F007FB00233B70249BF8
:104E400009F101001860269B002B3FF4DFAC1F60C6
:104E5000DCE427463B461F4613F8012D392A07D1CB
:104E6000089A9A42F7D13022089908F101080A708D
:104E70001A7801321A709FE7C846EBE70022724B9E
:104E8000FEF772F802460B46CDE904230022002308
:104E9000FEF7D2FA002898D0CBE70B9A002A00F050
:104EA000CD80229A012A00F3AF80139A002A00F0E5
:104EB000A78003F233430A9C069F069A01211A44F5
:104EC0000692099A28461A44099200F077FB064692
:104ED000002F0CDD099B002B09DDBB42A8BF3B4620
:104EE000069AFF1AD21A0692099AD31A09930A9BB4
:104EF000F3B10B9B002B00F0A980002C10DD314694
:104F00002246284600F014FC524601460646284632
:104F100000F06AFB80465146284600F095FAC246EA
:104F20000A9B1A1B04D05146284600F001FC824619
:104F30000121284600F042FB0E9B0446002B40F363
:104F400087801A460146284600F0F2FB229B044661
:104F5000012B40F380804FF00008236904EB8303AA
:104F6000186900F0DDFAC0F12000099B184410F028
:104F70001F0000F09280C0F12003042B40F38A80D0
:104F8000C0F11C00069B074403440693099B03449D
:104F90000993069B002B05DD51461A46284600F072
:104FA00021FC8246099B002B05DD21461A46284636
:104FB00000F018FC04460F9B002B70D02146504691
:104FC00000F07CFC00286ADA002351460A222846B9
:104FD00000F05CFA0B9B824609F1FF39002B00F0D0
:104FE0009381314600230A22284600F04FFABBF194
:104FF000000F064600F39380229B022B57DC8EE0C5
:10500000169BC3F1360356E7029B5C1E0A9BA34224
:10501000B7BF0A9B1C1BE21A0E9BBEBF0A949B18CB
:105020000E93029BB8BF0024002BBBBF069B029AC5
:10503000069F9F1AACBF029B00233EE70A9C069F77
:105040000B9E45E70000E03F000024400A9A6AE713
:10505000229B012B19DC049BBBB9059BC3F31303F3
:105060009BB9059B23F000431B0D1B0583B14FF03B
:105070000108069B01330693099B013309930E9B9C
:10508000002B7FF46AAF01206FE74FF00008F6E7CE
:105090009846F4E73FF47DAF18461C3072E7029B58
:1050A000002B36DC229B022B33DDDDF808B0BBF190
:1050B000000F0DD121465B460522284600F0E6F997
:1050C00001460446504600F0F9FB00283FF7B6AD14
:1050D000239B089F6FEA03094FF0000821462846EA
:1050E00000F0B2F9002E3FF4A4AEB8F1000F05D0E5
:1050F000B04503D04146284600F0A6F9314628467F
:1051000000F0A2F995E600242646E1E7C1462646CE
:1051100094E50B9BDDF808B0002B00F0FC80002F1D
:1051200005DD31463A46284600F05CFB0646B8F1FC
:10513000000F5CD02846716800F046F9074628B990
:10514000024640F2EA217E4BFFF726BB326906F1A8
:105150000C01023292000C3000F028F9012239468D
:10516000284600F03FFBB0460646089B01330293F9
:10517000089B5B440A93049B03F001030993029B81
:105180002146504603F1FF3BFFF764FA03464146D0
:105190003033049050460B9300F090FB324606905B
:1051A0002146284600F0A6FBC26807460B9B02BBBF
:1051B0000146504600F082FB02460B9B39462846CA
:1051C000CDE90B3200F040F9229B0C9A029F43EA92
:1051D0000201099B0B430B9B0DD1392B27D0069A5B
:1051E000002A01DD049B31338BF8003076E730462E
:1051F000B9E70122E2E70699002904DB229801437E
:105200000998014320D1002AEEDD514601222846AB
:10521000029300F0E7FA2146824600F04FFB002897
:10522000029B02DCE0D1DA07DED5392BDAD1392353
:105230008BF800303B461F4617F8012C013B392AFA
:1052400050D001321A7049E7002A03DD392BEED025
:105250000133C9E7029A0A9902F8013C8A422AD02E
:10526000514600230A22284600F010F9B045824634
:105270004FF000034FF00A024146284607D100F0E4
:1052800005F980460646029B0133029377E700F05A
:10529000FDF83146804600230A22284600F0F6F841
:1052A0000646F0E7BBF1000FCCBF5F4601274FF089
:1052B0000008089A1744514601222846029300F03C
:1052C00091FA2146824600F0F9FA0028B2DC02D1B8
:1052D000029BDB07AED43B461F4613F8012D302A54
:1052E000FAD0FBE6089A9A42A5D1312309F10109C7
:1052F0001370F3E6134BFFF7A7BA269B002B7FF43E
:1053000080AA114BFFF7A0BABBF1000F03DC229B70
:10531000022B3FF7CCAE089F21465046FFF79AF983
:10532000089A00F1300307F8013BBA1A9345B9DD3A
:10533000514600230A22284600F0A8F88246EBE7EF
:10534000971E0108101E0108341E0108004870470E
:10535000540100207047704770470000024B01461F
:10536000186800F00DBC00BF0000002082B001B939
:1053700001A942B14BB113780B601278101E18BF0F
:10538000012002B070471046FBE76FF00100F8E71C
:10539000034610B5C9B202449342184601D1002019
:1053A00003E0047801338C42F6D110BD0A449142E7
:1053B00000F1FF3300D1704710B511F8014B914255
:1053C00003F8014FF9D110BD70B5466A04460D4689
:1053D00076B91020FFF7C2FF0246606220B966214D
:1053E000174B184800F044FCC0E901660660C6602F
:1053F000666AF36883B1636ADB6853F82500B8B95D
:10540000012101FA05F6721D2046920000F05EFBB4
:1054100060B1C0E901560EE021220421204600F0CF
:1054200055FB636AF060DB68002BE4D1002070BD9F
:10543000026843F825200023C0E90333F7E700BFE3
:10544000411E0108B21E010870B5466A05460C46A9
:1054500076B91020FFF782FF0246686220B98A21E0
:10546000084B094800F004FCC0E901660660C6600C
:105470003CB16B6A6268DB6853F82210216043F824
:10548000224070BD411E0108B21E01082DE9F04105
:1054900098460C4600230E69074601F11400056882
:1054A0000133A9B202FB01812D0C4FEA114C02FB22
:1054B00005C589B201EB05419E424FEA154840F807
:1054C000041BECDCB8F1000F22D0A368B34219DC56
:1054D000616838460131FFF777FF054628B9024673
:1054E000B5210D4B0D4800F0C3FB226904F10C01FE
:1054F000023292000C30FFF759FF21463846FFF781
:10550000A3FF2C4604EB86030136C3F81480266102
:105510002046BDE8F08100BF971E0108B21E0108B9
:10552000020C12040346CAB90304102013F07F4F83
:1055300004BF1B02083013F0704F04BF1B0104307E
:1055400013F0404F04BF9B000230002B05DB13F02B
:10555000804F00F1010008BF202070470020E5E7E0
:105560000368024613F007000BD0D90722D498072E
:1055700049BF5B089B08012013605CBF02201360D9
:10558000704799B209B910201B0C13F0FF0F04BF2C
:105590001B0A0830190704BF1B090430990704BF10
:1055A0009B080230D90703D45B0800F1010003D047
:1055B00013607047002070472020704710B50C46DC
:1055C0000121FFF701FF024628B94FF4A071044BF7
:1055D000044800F04DFB01234461036110BD00BF8E
:1055E000971E0108B21E01082DE9F04F14460A6902
:1055F00023690D469A42BEBF0B4625461C46D5F888
:1056000010A0D4F81090AB6869680AEB0907BB4298
:1056100085B0B8BF0131FFF7D7FE30B9024640F27E
:105620005D11414B414800F023FB00F11406334665
:10563000002206EB870843451ED305F1140C04F144
:1056400014030CEB8A0C03EB89020292ACEB05020B
:10565000153A22F00302043205F115018C4538BFDA
:1056600004220192029A03939A4208D8002F55DC33
:10567000076105B0BDE8F08F43F8042BDBE7B3F812
:1056800000A0BAF1000F20D0B146002205F1140E9F
:105690005EF8044BD9F800B0A1B21FFA8BFB0AFBED
:1056A00001B11144D9F80020240C120C0AFB042487
:1056B00004EB114489B241EA0441F4454FEA144233
:1056C00049F8041BE4D801997250039A0433B2F8E4
:1056D0000290B9F1000F1FD0B6464FF0000A3468AF
:1056E00005F114010A88BEF802B0A4B209FB02B2A7
:1056F000924444EA0A444EF8044B51F8044BBEF875
:105700000020240C09FB04248C4504EB1A444FEAC6
:10571000144AE7D8019AB4500436A3E758F8043D78
:10572000002BA5D1013FA1E7971E0108B21E010879
:105730002DE9F843154612F0030206460F4607D03E
:10574000254C013A002354F82220FFF79FFE07461C
:10575000AD103DD0746A7CB91020FFF7FFFD024602
:10576000706228B94FF4D7711C4B1D4800F080FAC5
:10577000C0E901440460C460D6F82480D8F8084029
:105780004CB940F271213046FFF718FF0023044660
:10579000C8F8080003604FF00009EB070AD5394646
:1057A00022463046FFF720FF804639463046FFF755
:1057B0004BFE47466D100BD0206838B92246214673
:1057C0003046FFF711FF2060C0F800900446E4E780
:1057D0003846BDE8F88300BFE81F0108411E0108F4
:1057E000B21E01082DE9F0470C4607469146236991
:1057F000496803EB6218A3684FEA621A08F10106D0
:10580000B3420BDB3846FFF7DFFD054648B90246D9
:1058100040F2D911274B284800F02AFA01315B00E9
:10582000EEE7002300F1140100F110021846534581
:1058300033DB20692AEAEA7A04F1140319F01F091C
:1058400001EB8A0103EB800C2BD08A460022C9F1C0
:10585000200E186800FA09F002434AF8042B53F8A6
:10586000042B9C4522FA0EF2F3D8ACEB0403153B53
:1058700023F00303043304F11500844538BF0423E7
:10588000CA500AB108F10206013E384621462E618F
:10589000FFF7DAFD2846BDE8F08742F8040F013330
:1058A000C5E7043953F8042B9C4541F8042FF9D877
:1058B000EAE700BF971E0108B21E010803460A6905
:1058C000006930B5801A0DD11433143103EB820412
:1058D00001EB820154F8045D51F8042D954202D089
:1058E00004D3012030BDA342F4D3FBE74FF0FF30D7
:1058F000F8E700002DE9F84F0C4606461146204611
:105900009246FFF7DBFF051E11D129463046FFF70F
:105910005BFD024628B940F232213C4B3C4800F086
:10592000A7F90123C0E904351046BDE8F88FA4BFEC
:105930005346A2463046DAF80410A6BF1C4600259E
:105940000125FFF741FD024618B94FF410712F4BA6
:10595000E4E700F11408DAF81070C5604FF0000CAD
:105960000AF114050AF11000C246266904F114096F
:1059700005EB870E09EB860650F804BF59F8043B87
:105980001FFA8BF161441FFA83FC1B0CA1EB0C0185
:10599000C3EB1B4303EB214389B24FEA234C4E4533
:1059A00041EA03434AF8043BE6D8331B153B23F096
:1059B000030315340433A64238BF04231D44434473
:1059C0001E462C4674450ED30EF10301491B21F0EF
:1059D0000301033DAE4538BF0021194451F8043D91
:1059E0008BB11761A0E754F8048B1FFA88F161446A
:1059F000081400EB184089B241EA00414FEA204CFC
:105A000046F8041BDEE7013FE8E700BF971E0108E8
:105A1000B21E01082DE9F3410121DDE90876904627
:105A20001D46FFF7D1FC044630B9024640F20A3168
:105A3000244B254800F01CF9C5F31303C5F30A55A0
:105A40002DBB0193B8F1000326D068460093FFF701
:105A500087FD0099F0B1019AC0F1200302FA03F327
:105A60000B43C24063610192019B002B14BF0221D2
:105A70000121A3612161C5B1A5F233450544C0F1FF
:105A800035003D603060204602B0BDE8F08143F44F
:105A90008013D6E76161E7E701A8FFF761FD012107
:105AA000019B216163612030E5E704EB8103A0F2F3
:105AB000324038601869FFF733FDC0EB41113160A7
:105AC000E1E700BF971E0108B21E010838B502FBCE
:105AD00001F5294600F054F8044618B12A46002181
